:1000000000300020ED100000151100001511000057
:1000100000000000000000000000000000000000E0
:1000200000000000000000000000000015110000AA
:100030000000000000000000151100001511000074
:100040001511000015110000151100001511000018
:100050001511000015110000151100001511000008
:1000600015110000151100001511000015110000F8
:1000700015110000151100001511000015110000E8
:1000800015110000151100001511000015110000D8
:1000900015110000151100001511000015110000C8
:1000A00015110000151100001511000015110000B8
:1000B00015110000151100001511000015110000A8
:1000C0000448054B10B5834203D0044B002B00D0ED
:1000D000984710BD0804002008040020000000001C
:1000E00006480749091A8B10C90FC91810B54910DD
:1000F00003D0044B002B00D0984710BD080400200B
:10010000080400200000000010B5074C2378002BE5
:1001100009D1FFF7D5FF054B002B02D0044800E0C2
:1001200000BF0123237010BD080400200000000060
:10013000DC750000054B10B5002B03D004490548C1
:1001400000E000BFFFF7CCFF10BDC046000000007C
:100150000C040020DC750000402292029A1A92469C
:100160007047C046174B002B00D1134B9D46FFF73D
:10017000F3FF00218B460F461348144A121A00F071
:100180003BF80E4B002B00D098470D4B002B00D0B6
:1001900098470020002104000D000D48002802D0DF
:1001A0000C4800F027F900F06DF82000290001F05C
:1001B00001FC00F011F8C04600000800000000003B
:1001C000000000000030002008040020040A002085
:1001D000F50300000504000010B50021040000F044
:1001E00085F8044B1B68002B00D09847200000F0D6
:1001F00067F9C0462404002030B50D00140001004A
:1002000083070BD00300032204E00D70013C013191
:10021000134204D00133002CF7D130BD0300032C6E
:1002200022D9FF222A40110289180A0489180F2CAA
:1002300026D922091201D218196059609960D96033
:1002400010339342F8D10F22224094460C222240D0
:10025000644609D0624692089200D21802C39342C3
:10026000FCD10324624614401A19002CD5D01D700D
:1002700001339A42D1D01D7001339A42F7D1CCE7B5
:10028000A446E7E770B50D4E0D4DAE4207D00024F1
:10029000761BB61008CD01349847A642FAD806F06E
:1002A00013F8084E084DAE4207D00024761BB61056
:1002B00008CD01349847A642FAD870BDFC0300204F
:1002C000FC03002004040020FC0300207047C0460B
:1002D0007047C046034B10B5002B02D0024800F017
:1002E00089F810BD0000000005040000F0B5DE46EE
:1002F00057464E464546E0B53C4B85B003901868DE
:1003000099460091FFF7E2FF394B9B461B689A46DE
:10031000002B1FD053465A68541E1BD457461D1D30
:100320005E1DC42392008437BF18B84657465B0051
:10033000FF365344AD18B6180293009B002B15D01E
:100340004246336800998B420FD0043D043A043E84
:10035000013CF6D24B461868FFF7BAFF05B0F0BC77
:10036000BB46B246A946A046F0BD90462B689A46C9
:100370007B68013BA34230D000232B605346002B07
:1003800018D07B6801934B461868FFF7A1FF012343
:10039000A340029A12681A4214D1D0474B461868FB
:1003A000FFF794FF5B4601991A687B688B4219D16D
:1003B000BA4217D104235B42043D9844F618013C2D
:1003C000BBD2C7E7424611683A008D32FF3212684D
:1003D0001A4204D10398D047E0E77C60CEE70800DA
:1003E000D047DBE7002AB5D0924693E70000002013
:1003F0002C04002010B5010000230022002000F092
:1004000015F810BD70B5074C074D641BA41005D03E
:10041000013CA300EB589847002CF9D105F05AFF96
:1004200070BDC0460804002004040020F8B5CE4684
:100430004746204C050080B520681600994688463E
:10044000FFF744FF1C4B1A68002A2BD05368206822
:100450001F2B2ADC002D0CD1591C51604146023360
:100460009B009950FFF734FF0020C0BCB946B0464E
:10047000F8BD8824990051180E511600873C9C4005
:100480008936FF3637682743376084264F46760023
:100490008F51022DE0D115008D35FF35296821439C
:1004A0002960D9E7054A1A60D0E7FFF711FF01205C
:1004B0004042DAE7000000202C0400203004002035
:1004C000FEE7C046002243088B4274D303098B42E7
:1004D0005FD3030A8B4244D3030B8B4228D3030C14
:1004E0008B420DD3FF22090212BA030C8B4202D3B6
:1004F0001212090265D0030B8B4219D300E0090ADE
:10050000C30B8B4201D3CB03C01A5241830B8B42E6
:1005100001D38B03C01A5241430B8B4201D34B03CF
:10052000C01A5241030B8B4201D30B03C01A524134
:10053000C30A8B4201D3CB02C01A5241830A8B42B9
:1005400001D38B02C01A5241430A8B4201D34B02A2
:10055000C01A5241030A8B4201D30B02C01A524106
:10056000CDD2C3098B4201D3CB01C01A52418309BA
:100570008B4201D38B01C01A524143098B4201D3F4
:100580004B01C01A524103098B4201D30B01C01A1F
:100590005241C3088B4201D3CB00C01A5241830899
:1005A0008B4201D38B00C01A524143088B4201D3C6
:1005B0004B00C01A5241411A00D201465241104626
:1005C0007047FFE701B5002000F006F802BDC04605
:1005D0000029F7D076E770477047C0460723C20866
:1005E0001840063B8340002904D003495354BFF30D
:1005F0004F8F70470149F9E7100004407000044034
:100600000A00072110B50140C00800F0ADFB10BD85
:100610000B4B04221B7802211811C04380001040AC
:10062000DA10D24352000A401043012299105B11A4
:100630008A43DB4310430822DB0013401843704712
:10064000030004407047000010B505F015FB0022C0
:100650000221102005F0A0FA00F0B4F900F00EFA23
:10066000014800F0CBF810BD78690000012110B5F9
:1006700001402320FFF7B2FF10BD012110B541401A
:1006800004001020FFF7AAFF002C05D1200000F085
:10069000EFF8200000F0DAF810BD012110B501409C
:1006A00004000820FFF79AFF022109202140FFF7EC
:1006B00095FF04210A202140FFF790FF08210B201D
:1006C0002140FFF78BFF10210C202140FFF786FF10
:1006D00020210D202140FFF781FF10BD10B5002023
:1006E000FFF7DBFF0020FFF7C8FF0020FFF7BEFF8A
:1006F00004210820FFF784FF04210920FFF780FF71
:1007000004210A20FFF77CFF04210B20FFF778FF6C
:1007100004210C20FFF774FF04210D20FFF770FF68
:1007200000211A20FFF76CFF00211B20FFF768FF54
:1007300000211C20FFF764FF00211D20FFF760FF50
:1007400004211020FFF75CFF04212320FFF758FF4E
:1007500004211120FFF754FF04211220FFF750FF5E
:1007600004211320FFF74CFF04211420FFF748FF5A
:1007700004211520FFF744FF10BD000072B6034BA3
:1007800018780130C0B218707047C046FC050020D0
:10079000044A1378013BDBB21370002B00D162B620
:1007A0007047C046FC05002010B5FFF7E7FF034B7C
:1007B0001C68FFF7EDFF201280B210BDC4050020B9
:1007C00070B504000D00FFF7D9FF0022074B1A8017
:1007D000074BA54200D9074A1A601A6812021A602C
:1007E0000122054B1A70FFF7D3FF70BDCA05002028
:1007F000C4050020F87F0000C00500200A4B10B59A
:10080000011C984200D9191C002089B200F022FE78
:10081000064B041C984200D91C1CFFF7AFFF044B89
:100820001C80FFF7B5FF10BD78690000F87F00005D
:10083000C805002010B50400FFF7A0FF024B1C8084
:10084000FFF7A6FF10BDC046CA05002010B504245E
:10085000002804D1044B1C70BFF34F8F10BD002043
:1008600000F006F8014BF6E7120004407200044065
:1008700070B5061E02D00020FFF7E8FF0025FFF745
:100880007DFF154B13201D7000F018F90823134C41
:100890002370BFF34F8F142000F010F91023237042
:1008A000BFF34F8FFFF774FF2023AE4204D10C4AF1
:1008B0001370BFF34F8F70BD2370BFF34F8F0620AF
:1008C00000F046FC0400280000F042FC010020007B
:1008D000FFF776FFEFE7C046C00500207200044036
:1008E0001200044010B50100112000F0DBF810BD2B
:1008F0002023C20712D50C4A1370BFF34F8F402339
:1009000082070DD5084A1370BFF34F8F802340072D
:1009100008D5054A1370BFF34F8F7047034AEBE7C2
:10092000024AF0E7014AF5E714000440740004406D
:1009300010B5002813DB0A4B187072B6094C06205C
:10094000237801332370FFF7D3FF2378013BDBB219
:100950002370002B00D162B6022000F0B3FA10BD64
:10096000D4050020FC05002010B5064B1B78013390
:10097000DBB2102B00D90023034A9B009856FFF7E7
:10098000D7FF10BDCC0500206863000010B5FFF74D
:10099000EBFF074A074B127892009B189A78064B98
:1009A0001A700022054B1A70054B1A6010BDC04624
:1009B000CC05002068630000D5050020D605002086
:1009C000D005002010B504212520FFF719FE0421D1
:1009D0002620FFF715FE04212720FFF711FE032133
:1009E0002020FFF70DFE03212120FFF709FE032140
:1009F0002320FFF705FE03212220FFF701FE03213C
:100A00002420FFF7FDFD03210F20FFF7F9FD8022D1
:100A1000144B1A70BFF34F8F0123134A134C116804
:100A20000B4313608023C421DB02236089006258DA
:100A30000F4B1A4080231B041343635000F03AFA13
:100A40008023C5219B03236089006258094B1A400B
:100A500080231B02134300226350074B1A70FFF7D9
:100A600095FF10BD71000440D805002000E100E0B2
:100A7000FFFF00FFFF00FFFFCC0500208023C42103
:100A8000064A1B031360890053581B021B0A53506C
:100A90000022034B1A601A607047C04600E100E074
:100AA000E4050020034B142802D01A2801D1024B80
:100AB00019607047E0050020DC0500207047704792
:100AC0000022C221064B07481A605A609A608900CA
:100AD0004258054B1A40C0231B0413434350704730
:100AE000EC05002000E100E0FFFF00FF30B50B49FE
:100AF0000B880B4D0133DCB2DBB22A88BFF35B8F6E
:100B000092B29342F9D0074A12681055BFF35B8F37
:100B10000B808022044BD2001A6030BDE805002013
:100B2000EA0500200400002000E100E00548064935
:100B30000388BFF35B8F9BB20A8892B29A42F7D1C7
:100B40007047C046EA050020E80500200022014B5E
:100B50009A607047EC05002082B00190019B013B38
:100B6000FDD102B070470000034B10B55843000B95
:100B7000FFF7F2FF10BDC04666690000002210B505
:100B8000024B1A7000F06EFA10BDC046FC05002042
:100B9000F3B5FFB06D4680260023440AC005C00DA2
:100BA00064022818B600E75CEF540133B342FAD16F
:100BB0000023934201DB7FB0F3BDC75CCE5CB7423C
:100BC00010D10133F5E7CE5CC65401339342FADB12
:100BD000200000F0F3F980212A002000890000F0B5
:100BE00009FAE8E70023F1E7F7B5070001911400DF
:100BF00072B6144D2B7801332B70002C19DD802137
:100C0000FB05DB0D1A19260089008A420CD80094D6
:100C10003800009A0199FFF7BBFF019BBF199B1990
:100C20000193009BE41AE8E780229200D61A00960E
:100C3000EEE72B78013BDBB22B70002B00D162B6C4
:100C4000F7BDC046FC0500207047704710B50D4B3E
:100C50000D4CDB8B0D49023B9BB20D4A012B08D892
:100C60000C4B23600C4B0B600C4B1360FFF728FF01
:100C700010BD0B4B23600B4B0B600B4B136000F054
:100C8000A3F8F5E762080020100000200C00002007
:100C900008000020ED0A00002D0B00004D0B0000A5
:100CA000290E00005D0E0000890E000010B5FFF750
:100CB00006FF00F06BF810BD70B50125114AFA214E
:100CC000D37F114C2B43D3770022E286A38EC90039
:100CD0002B43A3860D4B22821868FFF7F3FBCC232E
:100CE0008022C02101385B00E052638F9202AB4347
:100CF0006387074B49005A501A60638E1D4365860F
:100D000070BDC04601040240801D04401007002051
:100D100000E100E082B06A46BE21044B07329342F4
:100D200001D902B0704719700133F8E7002C002098
:100D300082B0034802AB181A80B202B07047C046B6
:100D4000042C002082B06A460020064B07329342F2
:100D500006D81978BE2903D1013080B20133F6E7F5
:100D600002B07047002C002010B500F0B3F810BDA1
:100D700010B5032202210120FFF7F6FF10BD10B5C8
:100D8000042202210120FFF7EFFF10BD012310B55F
:100D9000094AFF20D17F0B43C521D377074B890038
:100DA0005A5882435A50802252031A60044B054A13
:100DB0001A60FFF7DDFF10BD0104024000E100E012
:100DC000080700200007002070B50600FFF7D7FFD6
:100DD0000F2200250F4C3100E38E9343E386E38E10
:100DE000E3860D4BE5821868FFF76CFBF323802246
:100DF00001385B00E052094B52031A600422084B91
:100E00001A70BFF34F8F074B1D800823628E134368
:100E1000638670BD801D04401007002000E100E0E3
:100E2000110004400C07002030B509490B88094D1A
:100E30000133DCB2DBB22A88BFF35B8F92B29342FC
:100E4000F9D0054A12681055BFF35B8F0B8030BD97
:100E500004070020060700201400002010B50748F2
:100E6000074C08490388BFF35B8F9BB2228892B27C
:100E70009A42F7D10B88002BF4D110BD0607002051
:100E8000040700200C070020082310B5074A918EA4
:100E90000B4393868022064B5203DA67BFF34F8FD2
:100EA000BFF36F8FFFF764FF10BDC046801D044085
:100EB00004E100E00123024A11780B4313707047EC
:100EC00000500440024B5A8E104358867047C0466B
:100ED000801D044003000120884000B50100062A5F
:100EE00035D81000304A9A1805F076F81C041C2EEC
:100EF000323C49001078884310702C4A98180278C8
:100F00000A4302702A4A981802788A430270294AD2
:100F1000981802780A430270274A9B181A788A4365
:100F20001A7014E0107888431070204A98180278DC
:100F30000A4302701E4A981802788A4302701D4ABA
:100F4000981802788A43E6E713780B43137000BDC4
:100F5000107888431070154A981802788A430270F6
:100F6000134ADAE7107888431070104A981802780C
:100F70008A4302700E4A9B181A780A43D0E7107809
:100F800088431070094A981802780A430270084A88
:100F9000981802788A430270064A981802788A43A1
:100FA0000270054AE7E7C0466000044020000440A4
:100FB00050000440300004404000044010220C4B1C
:100FC000DA60E1321A629C3A5A6055329A60AB3A62
:100FD0000260023219681142FCD019680A431A6093
:100FE0000022DA601A6218684007C00F7047C046D6
:100FF000000002409446F122F0B50024AA27012601
:101000000A4B1A629C3A8C4202D100201862F0BD51
:1010100065465F609A602D5D25541D683542FCD0A1
:101020001D68013435431D60EDE7C04600000240F5
:10103000C22307221B7808499343C12252018A5CCC
:1010400013432033DBB20D2B03D8044A9B0098587E
:1010500070470348FCE7C04600040240AC63000050
:1010600040420F008021184A184B10B5D1541A2263
:10107000174B1A7311325A7311329A731132DA7391
:101080000022144B5A60FFF7D3FF0122C021124BFC
:1010900052421860114B49005A501A60104A4918C0
:1010A0005A5004315A5004315A5004315A500431C4
:1010B0005A5004315A5004315A5004315A50AC211C
:1010C000084A094BD15410BD00010240250300001D
:1010D0000004024000B001401007002000E100E0E1
:1010E000C0C0C0C004040240FD0B00000649074A0E
:1010F000074B9A4204DA0868106004310432F8E7BA
:10110000FFF7B0FFFFF72EF8E875000000000020A1
:1011100008040020FEE7C04672B6034B1878013081
:10112000C0B218707047C046FC050020044A13780E
:10113000013BDBB21370002B00D162B67047C04692
:10114000FC050020014B4000C05A7047CC0700202E
:10115000014B4000C05A70478207002010B5440080
:10116000FFF7DAFF024BE45AFFF7E0FFA0B210BD31
:10117000EE070020014B1878C0B270475A080020D3
:10118000014B18887047C04636070020014B18886D
:101190007047C04624070020014B18887047C0469E
:1011A00026070020014B18707047C046200700201A
:1011B000014B4000C05A7047380700200122014B04
:1011C0001A70704758080020102901D8012A06D942
:1011D00000230122C370827002704370704749007F
:1011E000084B89188900CA18595C53781B020B43B5
:1011F0009178D278037012021B0A120A4370817030
:10120000C270EBE7270000200B0010B5110010287A
:1012100009D8012B07D84000C018034B80000422D6
:10122000C018FFF7E1FC10BD2700002037B50024EF
:10123000104D2900042201A804F0C2FF019B2000E8
:101240006A4600210093FFF7DFFF291D042201A851
:1012500004F0B6FF2000019B01346A460121E4B28C
:1012600000930835FFF7D0FF112CE2D1012000F0E8
:101270002FFC37BDE062000010B5024B188800F06B
:1012800086FE10BD56080020034B588D133843428C
:101290005841C0B27047C04682070020014B188DEC
:1012A0007047C04682070020014B988C7047C046AB
:1012B00082070020014BD88D7047C046820700206E
:1012C00010B5064B00201A8D022A05D9DB8D022BA2
:1012D00002D9033001F098FA10BDC046380700204B
:1012E00010B5FFF719FF00231A00074998000133D2
:1012F0004250112BFAD16421044B1980044B1A700F
:10130000FFF714FF10BDC04610080020540800204D
:101310005908002010B5FFF7FFFE0023074A13808D
:10132000074A1360074A1360074A136004F00FF975
:10133000064B1880FFF7FAFE10BDC04634070020A8
:10134000300700202C07002028070020220700205B
:1013500010B54A2200210248FEF74EFF10BDC046DC
:101360003807002010B5FFF7D7FE0122044B1A8082
:10137000044B1A70FFF7ECFFFFF7D8FE10BDC04614
:10138000540800205908002070B5FFF7EBFF054C0A
:1013900025882388AB4200D070BD0A2004F0FAF8FB
:1013A000F7E7C04636070020002010B5024B187042
:1013B000FFF763F910BDC0465A08002010B50120A0
:1013C000FFF7CCFE04000020FFF7C8FE0023844294
:1013D00001D9241AA3B2FA208000984280414042E9
:1013E00010BD000070B5002925D0102825D8C000F8
:1013F0000400164B0E34E21855781C5D2D0225436F
:10140000D4789678123024023443C61872781B5C64
:1014100012021A43F378B0781B0203431B1B481BCC
:101420005843511B04F0E2FD802324185B029C42C8
:1014300008DB074CA1B2080070BD01231A001C0094
:101440001D00EBE7E343DB171C40F3E71900002026
:10145000FFFF000070B5002925D0102825D8C00056
:101460000400164B0E34E2181D5D54789678240261
:101470002C43D57812302D023543C61872781B5C88
:1014800012021A43F378B0781B020343121B481B65
:101490005043591B04F0AAFD802324185B029C4290
:1014A00008DB074CA1B2080070BD01231A001D0023
:1014B0001C00EBE7E343DB171C40F3E719000020B7
:1014C000FFFF00000238C3B201201B2B01D8014AE4
:1014D000D05C7047E463000010B50400132806D107
:1014E0000A4B588D133843425841C0B210BDFFF724
:1014F000E9FF030001208342F8D18440034B903080
:10150000E35AFF30984280414042EFE782070020D3
:1015100070B51F24012500262000FFF7DDFF68437A
:1015200001340643E4B2B6B26D00252CF4D130008C
:1015300070BD0000064B70B54200D55A0C00FFF795
:10154000C1FF61B20200280004F032FA70BDC0464B
:101550008207002010B5FFF7DFFD054B1C68FFF781
:10156000E5FDFA212000C901FEF7ACFF80B210BDF5
:101570001C07002010B5FFF7CFFD054B1C68FFF7D7
:10158000D5FDFA216008C901FEF79CFF80B210BDAD
:101590001807002030B5094C4000035B8B420AD984
:1015A0005B1A9BB20022064D062B01D82A5A013243
:1015B0002A52215230BDCB1AF3E7C04682070020E1
:1015C0003807002070B50024FFF7A6FD3222114B2A
:1015D0001C60114B1C60114B1A70FFF7A7FD104DDA
:1015E0001C20A98CFFF7D6FFEA890E4B1A80FFF763
:1015F000B9FEFFF78FFE0C4B210019201C80FFF76E
:10160000C9FF21001B20FFF7C5FF21001D20FFF7A8
:10161000C1FF70BD1C070020180700201407002020
:10162000820700202407002026070020002210B592
:10163000024B1A80FFF7C6FF10BDC04636070020D8
:1016400010B5FFF7F3FF10BD70B5094D2C78002CD5
:101650000DD1FFF712F8FFF7E9FF0123054A2B70C0
:101660001370FFF791FEFFF7ADFF034B1C7070BDC9
:101670005A0800201800002058080020094B82005A
:1016800010B509490400D058FEF71CFF074B81B282
:1016900062002000D152FFF7A5FE01002000FFF7F5
:1016A00079FF10BD10080020581B0000CC07002057
:1016B000F8B52E4B1C8803F04AFF2D4B001B80B25F
:1016C000984251D9FFF728FD2A4B2B4C1B885C43CD
:1016D0002A4B24091F682A4B1D682A4B1E68FFF7F6
:1016E00025FDFFF717FE284A210013882800013343
:1016F0001380FEF7E7FE210005003800FEF7E2FE4A
:1017000081B20020FFF76EFEA9B207000120FFF7AB
:1017100069FE0025874201D93F1ABDB21B4B1F8FBE
:10172000AF4203D91A4B1B78002B03D129001C2090
:10173000FFF730FFE91B1B2089B2FFF72BFF2100C9
:101740003000FEF7BFFE81B20720FFF74BFE114BC2
:1017500019881880411A49001D2089B2FFF71AFF25
:101760001E20A1B2FFF716FFF8BDC04622070020D9
:101770003075000034070020581B0000300700209F
:101780002C070020280700202607002082070020C1
:101790002007002024070020F7B5464D00242B88A1
:1017A0006A88934201D99B1A9CB221001220FFF74C
:1017B000F1FE288A6A8A0021AB8A824201D9101A76
:1017C00081B20026934201D99B1A9EB21F20FFF7D7
:1017D000E1FE2F00310021262020FFF7DBFE0195DE
:1017E00030000136F98AF6B2FFF7D4FE0237252E13
:1017F000F6D1314B314E1B78002B02D1FFF788FE1A
:1018000030800023378801211E003A001A410A4225
:1018100003D0019AD28FB618B6B2019A01330232C0
:101820000192062BF1D131001320FFF7B3FE002EF9
:1018300035D0A31BA64200D3331B214A9BB293424F
:101840002DD813233400019321001420FFF7A2FEAA
:1018500039001620FFF79EFE15200199FFF79AFE2A
:1018600001F00EFA061E1ED0EE88200070431549C6
:10187000FEF728FE81B21820FFF78CFE31001720FA
:10188000FFF788FEFFF766FE01001920FFF782FED2
:10189000FFF770FE01001A20FFF77CFEF7BD122350
:1018A00000270193D0E701F0BFFFB042DDD0AE8842
:1018B000DBE7C046820700205808002056080020B9
:1018C000B80B00001027000010B5FFF725FC204BD7
:1018D0001C88A4B2FFF72AFC002C30D11D4B1C78C9
:1018E000002C2AD11C4B1B78A34229D01B4A1C492F
:1018F00013880868013313801A4AE4B213681B097D
:101900001B180B601849536808681B091B180B60EB
:10191000D369164A1B0911685B181360144A1388AF
:1019200001331380FFF7C4FE20000134E4B2FFF757
:10193000A5FE112CF8D1FFF72FFFFFF7D1FC10BD4A
:101940000C4B1B78002BF8D00520FFF797FEF4E72F
:1019500054080020590800205A08002036070020AB
:1019600030070020100800202C0700202807002046
:10197000340700201800002010B5FFF7A5FF10BDA8
:1019800010B5FEF7ABFEFFF7F9F8FEF75DFEFFF7C7
:1019900093F901F0D1FF01F0FBF9FFF751FEFFF7DA
:1019A00085F9FFF7B7F900F071FA03F084F803F056
:1019B00055F910BD10B5FFF7E3FF00F03FF902F055
:1019C00055FF002010BD73B56B4606009D1D298094
:1019D000002A03D002222900FFF706F904242A88EE
:1019E00033889A4208D0013C6420E4B203F0C6FD7B
:1019F000002CF4D1012076BD0020FCE7F7B5FF24D0
:101A0000019100210090244E2448019A8BB29A4201
:101A100000D8FEBD009B224F5B5C013158400200A4
:101A2000A04322401202000A10431E4B1E4A0240ED
:101A3000184000091201024313001C4833400240C1
:101A400092089B0013431A00844619483B40024009
:101A50005B0855001D432A0A164B52009B5A2D0263
:101A60006B401A00A34322409BB212021B0A13438D
:101A70000C4D0D4A1A402B4012011B0913431A004A
:101A8000654632402B4092009B08134318403B4070
:101A900040005B081843B8E733330000FFFF000045
:101AA000AAAAFFFFF0F0FFFF0F0F0000CCCCFFFF52
:101AB000555500000064000070B50D0016000400CC
:101AC000FFF79CFF320001006019FFF77CFF70BD3B
:101AD00010B5020088210248FFF7EEFF10BDC04696
:101AE00027000020C82110B5020002488900FFF736
:101AF000E3FF10BDB100002010B502002421024810
:101B0000FFF7DAFF10BDC046D3030020F0B5012473
:101B1000044085B00500220030493148FFF753FFEB
:101B2000220006002F493048FFF74DFF22002F49C1
:101B300006432F48FFF747FF06430296022622007E
:101B400006212C48FFF73FFF2E40B2070A210390E1
:101B5000D20F2948FFF737FF04242B0023405A07F0
:101B600007000321D20F25480193FFF72CFF4042C5
:101B700004407F003C4308273D402A07D20F0C2138
:101B80001F48FFF720FF039B029A4042384004435E
:101B900013431C43002E01D0FFF748FB0020FFF742
:101BA00097FF019B40000443002B01D000F07AFC1A
:101BB0000020FFF797FF0423404218400443002D04
:101BC00001D000F08BF90020FFF796FF0823404278
:101BD00018402043C0B205B0F0BDC04663680000A5
:101BE000190000206C6900001B000020014000006B
:101BF0001D0000201F0000202100002023000020E5
:101C00002500002010B5040002F0E2FF0223E207E5
:101C100006D51C4304231C4308231C43E4B203E001
:101C20001C42F7D16307F7D402F0ECFF2000FFF766
:101C30006DFF0100200002F0EDFF10BD002010B587
:101C4000FFF764FF0123002802D0FFF7DBFF00232A
:101C5000180010BD10B50020FFF758FF01231843EE
:101C6000C0B2FFF7CFFF10BD70B5012502F010FF25
:101C7000094B0A4A0A4C1A600A4B1D700023237054
:101C800000F046FA022800D1257000F071FF0138FB
:101C900043425841C0B270BDDC080020106700000C
:101CA000D3080020DA080020012110B5080000F058
:101CB000D1FE024B024A1A6010BDC046DC0800206B
:101CC00028670000012110B5080000F0C3FE024B98
:101CD000024A1A6010BDC046DC08002040670000C0
:101CE00010B50021022000F0B5FE024B024A1A6036
:101CF00010BDC046DC0800200467000010B501F0EC
:101D000019F8FA20800000F0FFFF322003F042FCB7
:101D100001F024F80121080000F09CFE014B024A6A
:101D20001A6010BDDC080020F866000000221C4B81
:101D300010B51A7008280CD804F04EF90513181CB9
:101D40001F2E2C1C050000F0E3F9002802D1FFF73C
:101D5000B9FF10BD00F0DCF9052804D1FFF7CEFF74
:101D6000F7E701221A70FFF79FFFF2E70D4B0E4ACB
:101D70001A60EEE7FFF7B4FFEBE7FFF795FF0B4BB9
:101D80000521D8799A7900021043FEF79BFB084C95
:101D90002080DEE701221A70024B064AE8E7C046BF
:101DA000D3080020DC080020EC6600008608002034
:101DB000D40800203467000010B501F095F9FFF752
:101DC00001FC10BD10B50400FFF7F6FF2000FFF77F
:101DD000ADFF072C06D0082C0FD10321012000F005
:101DE000CBFB10BD064A074BD17FDB7F09021943AD
:101DF000490001390020C9B2F1E700F0B9FEF0E76F
:101E00008E0800208D08002070B5050001F0F0FE5E
:101E1000002829D0154C280025700025FFF786FFE3
:101E2000134B144E1D600323337003F081FF012018
:101E3000FFF70AFCFFF718FFA8420FD00123337009
:101E400001F06CF902F024FE0B4B05201D7003F02D
:101E50007BFA2078FFF7B6FF01F0A6F9FFF7A4FAA6
:101E600003F084FF02F026FE70BDC046610800202A
:101E70005C08002060080020DA080020828B024BFA
:101E80009200D0587047C0460066000000B58BB085
:101E90002422054901A804F093F9242201A903484A
:101EA00004F08EF90BB000BDD303002062080020BF
:101EB00010B5242203490448FEF796FE0120FFF7DF
:101EC0001BFE10BD62080020D303002010B52422A1
:101ED000014904F075F910BD1466000010B50348FF
:101EE000FFF7F4FFFFF7E4FF10BDC04662080020D3
:101EF0000B4B9A8959898A4201D20A009981094972
:101F00008A4200D999811A8AD9898A4201D20A0063
:101F10001982FA2189008A4200D919827047C04685
:101F20006208002088130000704710B5804710BD7C
:101F300007B50100042201A804F042F90198FFF757
:101F4000F4FF07BD70B5040005200E001500FFF773
:101F5000FFF80023B04203D223700123180070BDA4
:101F6000A842FBD90133F7E703000A220120002B26
:101F700000D170475043013BDBB280B2F7E7031E4C
:101F800003D00123002800DC023B18007047010049
:101F900010B51022002001240B00013A2340C01884
:101FA000D2B2C0B24908002AF6D110BD13B500283C
:101FB00005DA01244042002805D1200016BD444224
:101FC0004441E4B2F7E70A210134E4B204F00EF828
:101FD000F1E710B5FFF7EAFF10BDF7B51F0008AB3A
:101FE0001C88068800900191300021001500FEF742
:101FF000EFFA89B2019B00290BD0002B10DD641A87
:10200000A4B23B1B9E4200DA37193D00009B1D80A5
:10201000F7BD8B42F5DC2B199E42F7DD351BF5E74A
:102020000C00F8E7F7B5040000881F000D0016004B
:10203000FFF7BCFF0123984204D90238C0B2FFF772
:1020400093FF030032002900009320003B00FFF7BC
:10205000C4FFF7BD10B50022014BFFF7E3FF10BD31
:10206000FFFF000010B503F0B3FA0028FBD103F026
:10207000AFFA0028FBD010BD064B10B55A781C787B
:10208000052312022243534303491B185B00585A8D
:1020900010BDC046860800207466000070B50C4D67
:1020A00006006C792B7924021C43FFF7E5FF022E12
:1020B0000AD16B782A781B021343B34204D1062C51
:1020C00002D99620013CC000604380B270BDC0467A
:1020D0008608002010B50D4B5C791A792402144350
:1020E000012804D19A7AD87A0002104308E0022825
:1020F00002D11A7B587BF7E7032804D0FFF7BCFF17
:10210000604380B210BD9A7FD87FEDE7860800203B
:10211000034B044A19785B781B020B43D05C704771
:10212000860800203866000010B50C4BDC789A78E1
:10213000240214431A7F5B7F1B0213435C43084B4A
:102140009C4209D8FFF7E4FF052805D06421200050
:10215000FEF7B8F980B210BD0248FBE78608002000
:10216000032F6300E8FD0000064B5A79197912022B
:102170000A43591C0233D87FC97F000208435043E9
:1021800000B270478608002010B50220FFF786FFD6
:10219000054C0100608A00F015FAA3899AB28242C8
:1021A00000D9031C98B210BD6208002010B50220AF
:1021B000FFF774FF054C0100A08A00F003FA238AA0
:1021C0009AB2824200D9031C98B210BD6208002066
:1021D0000120084B10B51A785B781B0213430A3BA9
:1021E000834206D9FFF748FF01000348FEF76AF96A
:1021F00080B210BD860800207869000070B53F4CA1
:10220000E378A2781B021343632B00D96CE06423AC
:10221000A3700023E370FA22E37CA17C1B029200EE
:102220000B43934204D918235B42A3741B33E3741A
:10223000FFF7CEFF637922791B021343834203D950
:10224000030A637103002071002B02D10122637124
:102250002271FFF799FFE379A2791B0213438342AE
:1022600003D9030AE3710300A071E27BA17B120290
:102270000A439A4202D9A3731B0AE373FFF796FF3E
:10228000637A227A1B021343834203D9030A6372DF
:1022900003002072617C227C09021143994203D918
:1022A00019001A0A23746274154DE079A6796A89B7
:1022B00000023043904202D2100AA271E071E07B2A
:1022C000A67B00023043904202D2A273120AE2734C
:1022D000EA89934202D2130A227263728A4202D9B5
:1022E0002274120A627470BD064A934200D892E7C3
:1022F00018235B42A37015338CE7C0468608002084
:1023000062080020E8FD000010B528246043084959
:102310008AB022004118684603F052FF2200694645
:10232000044803F04DFFFFF769FF0AB010BDC04637
:10233000B1000020860800202822504310B5044B2D
:102340000449C018FEF750FC0120FFF7CBFB10BD7D
:10235000B10000208608002010B5FFF74FFF064CA3
:102360000A21E079A37900021843FEF7ABF8A073C5
:10237000000AE07310BDC0468608002010B5FFF7C4
:102380003DFF064C0A21607A237A00021843FEF7CB
:1023900099F82074000A607410BDC04686080020B9
:1023A00010B5FFF72BFF0E4CE378A2781B02134306
:1023B0001A0AE271627821781202A3710A43032A91
:1023C00003D19B08A3711B0AE371FFF7C5FFE378F4
:1023D000A2781B021B0A22726372FFF7CFFF10BDA7
:1023E0008608002070B50120FFF746FE2C4CA07235
:1023F000000AE0720220FFF73FFE65782378207321
:102400002D02000A60731D4319D1302318225B424C
:10241000A3703733E370043B2371E3746D33A3750A
:10242000593BE37507335242A3765A336571A27460
:102430002575657525766576E57623776577FFF7EB
:1024400067FE00281FD10123E077A377063B022D0A
:1024500001D00F235B42611CCB77A11C1B0ACB77F9
:1024600003210022E31CD977231DDA776131631D34
:10247000D977A31DDA775F39E31D0834D977E2777E
:10248000FFF78EFF70BD0822631CDA770022A31CC1
:102490000320DA77FFF7F0FDA077000AE077EFE797
:1024A0008608002010B50024074B1C705C70FFF7F5
:1024B00099FFE0B20134FFF73FFF142CF9D101205E
:1024C000FFF710FB10BDC0468608002070B5050060
:1024D000FFF71AFF1D4C637822781B02134320D0AC
:1024E00002F080FD03F04AF9637822781B0213435F
:1024F0000B2B1DD004D8002B13D009200A2B21D080
:10250000E078A37800021843072103F073FA2F2024
:1025100003F0DBF8607923790002184303F0F3F845
:1025200005E0681C03F0EFF83A2003F0CEF870BD28
:10253000E079A37900020521184303F02AFA03F099
:102540001DF9042002F01CFDF1E7C04686080020BA
:1025500010B5064BD87E9A7E0002104300F0FCFCBA
:10256000034B044A1A6000F003FB10BD86080020EC
:10257000DC0800201C670000F8B501260F000F4D95
:102580000F4C2E7020702378BB4201D100222A709C
:1025900003203340013B1840FFF714FC01280BD106
:1025A0002B78002B08D023781B182370FFF704FC2E
:1025B000FFF7CEFF0128E6D0F8BDC046DA080020BC
:1025C000AE08002010B5FA24A4006043FDF77AFF9E
:1025D000C8236043DB03984204D26421FDF772FFF5
:1025E00080B210BD0048FBE7FFFF00000A4B10B5AA
:1025F0001C880120002C0DD1FEF7BCFDA04209D0A3
:10260000FEF7BEFD054B1B88C01A022380B2834231
:102610006441E0B210BDC046D0080020B0080020E0
:1026200010B51F30C0B2FEF793FD10BDF8B50125FF
:1026300000240127094E6D42094B1B8823413B4270
:1026400006D0E0B2FFF7ECFFB04201D22500060051
:102650000134062CF0D1E8B2F8BDC046FFFF0000FF
:10266000560800200C4B70B51B88002B02D1FFF7D9
:10267000D7FF70BD094B0A4D1B784400002B08D0D2
:10268000FFF7CEFF074A2B5B125B9B1AC01880B284
:10269000EFE7285BEDE7C046D0080020B408002033
:1026A000B6080020C2080020F8B5002501272C003C
:1026B000114E124B1B882B413B420CD0E8B2FFF766
:1026C000D1FF031CA04200D2231C9CB2031CB042C9
:1026D00000D9331C9EB20135062DEAD1084B0120EA
:1026E000DA7F084BA41BDB7F1B0213439C4200DCF8
:1026F0000020C0B2F8BDC046FFFF00005608002011
:10270000870800208808002070B50B4D04002B8836
:10271000002B05D0002803D1FEF732FD074B1880AF
:102720002C80FEF715FE064B1B78002B02D1E0B281
:10273000FDF7B3FF70BDC046D0080020B0080020F0
:10274000CE08002010B50120FDF77CFF0024E0B288
:10275000FFF766FF0A4A6300D0520A4A0134D0529A
:10276000062CF4D10024084B20001C80074B1C7061
:10277000FFF7CAFFFF22064B1C80064B1A7010BDE4
:10278000C2080020B6080020D0080020CE08002093
:10279000B0080020D208002010B50020FFF7B4FFD9
:1027A0000122014B1A7010BDCE08002010B5FFF7B2
:1027B000F3FF0020FDF746FF10BD00000020F8B534
:1027C00000240F4B1856A04217DBC0B2FFF74AFF98
:1027D0002500070001260B4B1B8833409BB2002BC2
:1027E00006D02800FFF73EFF874201D23443A4B24F
:1027F0000135EDB27600062DEDD12000F8BDC046C2
:10280000D20800205608002070B5050000240126DB
:10281000094B1B882341334204D10134062CF7D1E4
:10282000012070BD20001F30C0B2FEF7C1FCA842DD
:10283000F3D20020F5E7C04656080020F7B5062081
:10284000FFF7E2FF00283BD0FEF73AFD061E37D027
:1028500000201F4C2056002802DAFFF7E7FE207008
:10286000C0B2FFF7DDFE350000240127194B0190AF
:102870001A7B5B7B1B0213430093174B1B8823417E
:102880003B420FD0E0B2FFF7CBFE009B834218D84B
:102890000023019A82425B41104A1D406300D052DE
:1028A0000F4AD0520134062CE7D100220D4B1A708A
:1028B00002F05FFE0C4B1880002D04D0FFF76CFF78
:1028C000F7BD3500F1E7FFF779FFFFF71DFFF7E7E9
:1028D000D20800208608002056080020B6080020F4
:1028E000C2080020B4080020B2080020084B70B5D0
:1028F0001C78002C0BD10122064D1A702000FFF726
:102900008FFE0134E4B228800235062CF6D170BD6A
:10291000B4080020C2080020034B10B51C8802F048
:1029200028FE001B80B210BDB20800200D4B10B570
:102930001B88002B0CD1FFF781FFFFF757FE030028
:102940000220002B03D1084B1B78C01AC0B210BD67
:10295000FFF7CCFFFFF7E0FF0F28EED90020FFF7CD
:10296000D3FEEAE7D0080020CE08002070B50500AD
:1029700000240126084B1B882341334204D1013433
:10298000062CF7D1002070BDE0B2FFF76BFEA84225
:10299000F5D30120F7E7C0465608002070B50500C2
:1029A00000240126084B1B882341334204D1013403
:1029B000062CF7D1002070BDE0B2FFF753FEA8420D
:1029C000F5D80120F7E7C0465608002010B50400EE
:1029D000FEF752FC011E03D0200003F007FB80B27B
:1029E00010BD000010B500F077FF012000F022FDBF
:1029F000024B188800F04CFF10BDC046D4080020E0
:102A000010B500F081FF10BD10B5FEF759FC00288D
:102A100003D000F00FFF00F0A7FD10BD10B5FFF7C9
:102A2000F3FFFEF73BFC074B1B88834204D20020D8
:102A3000054B064A1A6010BD054B188800F028FFA8
:102A40000220F8E7D80800205C080020EC720000A3
:102A5000D608002010B50C00FFF73CFB0C4B0D49CD
:102A600018800D4B002C0BD0DA79987912020243B2
:102A70000A809A7BDB7B1B021343084A138010BD3C
:102A80005A7A187A120202430A801A7C5B7CF2E7B7
:102A9000D8080020D608002086080020D40800208E
:102AA00010B5024B1868FFF743FA10BDDC08002090
:102AB00010B5034B18680430FFF73AFA10BDC04652
:102AC000DC08002010B5FFF7F3FF00F06DFB02F00B
:102AD000F8FD10BD10B502F04CFD040002F049FDF8
:102AE000001B80B2B42801D9FEF75EFC02F070FD35
:102AF0000028F3D002F01AFC10BD10B5FFF7E2FF7A
:102B000002F00AF8062002F01FFCFFF7E3FF10BDF9
:102B100010B5FFF7D7FFFEF747FC02F005F80720D6
:102B200002F012FCFFF7D6FF10BD000007B5054B01
:102B30000422196801A8083103F042FB019B984761
:102B40000EBDC046DC08002010B5002804D1FFF7F8
:102B5000DFFF0023180010BD01239842FAD1034B78
:102B60001B78002BF5D1FFF7C8FFF2E7DA08002049
:102B7000F8B50026174F02253E700124FFF790FF9D
:102B800002F026FD387001F0F9FF002C14D000F09F
:102B900019FB0500FFF7D8FF041E0DD0FEF7F0FA71
:102BA000B04210D0FEF7ECFA0600FFF7BFFF0500B9
:102BB000FFF7CAFF041E06D1074B1C78002C02D079
:102BC000002D03D12C003B78012BD9D1FFF770FFEA
:102BD0002800F8BDA0090020DA08002010B500F098
:102BE000BDF8FFF7E3FD10BD10B500F0A3F8FFF747
:102BF000A9FD064B064A197E5B7E00201B020B4393
:102C0000591E8B41137000F015FC10BD8608002082
:102C1000E00800200A4B70B51D882800FFF7D6FE9B
:102C2000FFF7BCFE0400FFF7E1FC002806D1844258
:102C300004D1FEF733FB85426441E4B2200070BD4D
:102C4000D808002070B5FFF7E5FF040000F01EF87B
:102C50000A4B05001A782300002A04D00100200046
:102C600000F02EFC03000120002B06D129002000DB
:102C700000F024FD00F048F8022070BDE0080020BC
:102C8000014B18787047C046E6080020014B1888B1
:102C90007047C046E208002037B5104C104BE28860
:102CA000D1186B46DD1D280089B2FFF74BF90020D3
:102CB0002B78834210D1FEF7F7FA011C002800D1CF
:102CC0000121FA2089B24000FFF77CFC238A9AB2E6
:102CD000824200D9031C98B23EBDC0466208002063
:102CE00000FEFFFF064A10B5031C904200D9131CDA
:102CF000044A98B21380FDF7F5FDFEF733FB10BDD3
:102D0000F87F0000E408002010B50400FFF7C4FFBE
:102D1000031CA04200D9231C054A99B2108888429E
:102D200005D010201380FEF795FBFFF7DBFF10BDE9
:102D3000E208002070B5074D2C78002C09D1200046
:102D4000FFF7D0FF044B01201C80FDF77FFD01231E
:102D50002B7070BDE6080020E208002070B50A4D17
:102D60002B78002B0FD000240020FFF7BBFF074B70
:102D70000A201C802C7002F00DFC2000FDF766FD7F
:102D80000A2002F007FC70BDE6080020E2080020DF
:102D9000012210B5024B1A70FFF7E0FF10BDC046CC
:102DA000E60800200722064B10B51A70054B053ABD
:102DB0001A7002F0C1FA0322034B1A7010BDC0460C
:102DC000E2090020E1090020E7080020FF2210B5F9
:102DD000024B1A7002F0AAFA10BDC046E2090020A8
:102DE000F7B501261220FEF777FB404F7B783A7843
:102DF0001B0213430A3B9BB29E429B4146405B42EF
:102E00001E40FEF739FA3A4B05001C780023019367
:102E10009C420AD03B79C41A621E9441E4B2012B51
:102E200034D06B426B41DBB20193FEF72DFA0028E0
:102E300010D01220FEF78CF907001320FEF788F956
:102E4000874228D9381AFA2380B25B0083429B411B
:102E50005B421E430323002C00D10433254A019911
:102E60001370002901D0023B1370002E02D013789A
:102E7000013B1370002C12D1019BA3420DD0022004
:102E800002F062FA6B1E9D41EDB214E003005A1E7F
:102E900093411C40C9E7C01BD5E7002E08D0022093
:102EA00002F052FA019B002BECD1002CEAD101E098
:102EB00002F03CFA002502F07BFB0F4C00280CD1FD
:102EC000207085420FD1002E09D102F071FB082835
:102ED00005D123780133237001E0002DF3D023784E
:102EE0000120022B00D00220FEBDC0468608002033
:102EF000D3080020E2090020E70800200022014B4F
:102F00001A707047EC08002010B502F032FB014B3C
:102F1000188010BDEA080020094B10B51C8802F08B
:102F200028FB084B001B1B8880B2834204D301237B
:102F30000220054A137010BD00230120F9E7C046A6
:102F4000EA080020E8080020EC080020014B18786F
:102F50007047C046EC0800203C225043014B1880CB
:102F60007047C046E808002010B5FFF7EBFB00F003
:102F7000B3FC012000F05EFA10BD10B500F0C4FCF7
:102F8000FFF714FC10BD00000A4B70B51D88280027
:102F9000FFF71CFDFFF7EAFC0400FFF727FB002802
:102FA00006D1844204D1FEF779F9A8426441E4B223
:102FB000200070BDD808002070B5FFF7E5FF0400C1
:102FC00000F038FC01000500200000F079FA012330
:102FD000002806D12900200000F070FB00F058FC0A
:102FE0000223180070BD0000064B10B51B78064C7C
:102FF000002B01D1206810BD02F0B3FA2368C01A7B
:10300000F9E7C04601090020FC080020FA2110B5AC
:10301000024B89001868FDF755FA10BDF80800202A
:10302000FA2110B5024B89001868FDF74BFA10BD64
:10303000F408002070B50120FFF74CF805000420CB
:10304000FFF748F806001420FEF782F86323854254
:1030500013D90023864210D2801B84B2A81B64219E
:1030600080B2FDF72FFA81B22000FDF72BFA031C86
:1030700080B2632800D96323DBB2180070BD000062
:1030800070B5FFF7D7FF094B1A7882420DD2084D71
:1030900018702C68FFF7A8FF241AFFF7A5FF054B4F
:1030A00028601A68A24200D21C6070BD000900208E
:1030B000040900200809002010B5FFF7E1FF064BC6
:1030C0001A786423002A00D00533044A12789B1A28
:1030D000034A1068584310BD02090020000900206F
:1030E000080900207047000010B5FFF7A3FF064B4A
:1030F000064A187000231360054A1360054A1360DE
:10310000054A136010BDC0460009002004090020D4
:1031100008090020F8080020F4080020C82110B594
:1031200049000020FEF796F9164B18800120FEF7A3
:10313000D1FF154BC018154B041C80B2984200D922
:103140001C1CA0B2FDF75AFBA1B20020FEF782F9C9
:103150000F4A1049031C904200D9131C0B80FEF744
:1031600093F80D4B187002F0FCF90C4B1860FFF748
:10317000BBFF00220A4B1A700A4B01321A70FEF78D
:103180001DF810BDF0080020B80B000078690000A1
:10319000F87F0000EE08002002090020FC08002053
:1031A0000C0900200109002010B5FFF71DFF0022C7
:1031B000024B1860024B1A7010BDC046FC0800207C
:1031C00001090020404B70B51B78002B01D1022073
:1031D00070BD0520FDF7BCFF80223C4D9200EB88BE
:1031E0009B18984204DD3A4B3A4A00201A60EFE7F8
:1031F0000020FDF7B3FF384B1B88834207D9374BBC
:103200001B88834206D9FFF73BFD002802D0304BD4
:10321000334AEAE7334B1B78012BF8D0FEF734F83A
:10322000314B1B78834202D0294B304ADDE7304BCB
:103230001C88FA239B00E418A4B2FEF73BF8A042D6
:1032400002D9234B2B4AD0E70620FDF781FFEB8AFA
:10325000834202D91E4B284AC7E71920FDF778FFA1
:103260000400FEF761FF254B984206D0844204D348
:10327000174B234A01201A60AAE7224CE57CA37C65
:103280002D021D43FA239B009D420AD21E4B1F496B
:103290001868FDF717F980B2854202D80C4B1C4A1A
:1032A000E8E7637D227D1B02134300D18FE70720EF
:1032B000FDF74EFFE37DA27D1B021343834200D343
:1032C00085E7034B134A90E70109002062080020BC
:1032D0005C08002093750000EE080020F008002034
:1032E000A37500000C09002002090020847500006D
:1032F000D6080020797500006A750000E8FD00001E
:103300005A75000086080020F408002060EA0000DA
:103310004F7500003F75000010B5FFF72EFEFFF758
:103320005DFCFFF743FA10BD70B5104D2B78002BF4
:103330000AD0012B16D0FFF7F9FA0400022801D0B9
:10334000FFF7EAFF200070BDFFF736FE04000128FA
:10335000F8D1074B1B78002BF4D004182C70FFF722
:10336000F1F9EFE7FFF76EFCF0E7C0460D0900202A
:10337000D308002010B5FFF7E5F901210320FFF77E
:1033800069FB104B1C88FDF777FF002809D1FDF77A
:1033900085FFA0420CD8FFF7E7FD00230A4A13700F
:1033A00010BD2000FFF712FBFFF7F8FA0028F2D15A
:1033B00000210320FFF74EFBFFF716FC0123034A11
:1033C0001370EBE7D80800200D090020E00800206A
:1033D000034B00201B78012B01D1024B188870474A
:1033E0000E090020D40800200C2310B543430248E6
:1033F000181800F0B5FA10BD1C09002010B50248DD
:1034000000F0AEFA10BDC0466409002013B51220CA
:10341000FDF79EFE01AC20801420FDF799FE238865
:103420001B1A17202380FDF793FE6080200000F018
:1034300097FA16BDF0B50125184B85B007001D7031
:10344000FDF72CFF164C174E2288010033881648D2
:10345000009700F097FA2088FFF7B8FA002403904D
:10346000124B1B8823412B420CD0E0B2FFF7FAF835
:1034700001000C2060430E4A338880180097039A9D
:1034800000F080FA0134062CEAD10023094A1370B7
:10349000094A1370094A138005B0F0BD0E090020D7
:1034A000D8080020D40800205C090020560800201D
:1034B000140900206A090020120900206809002070
:1034C000224B70B51B7804000D00002B27D0204E36
:1034D000002806D03378002B03D1FFF75DF90123D4
:1034E00033703378002B01D0052B18D1194B1B8872
:1034F0009AB2A02A00D2A0239BB2AB4202D20022F1
:10350000154B1A70FFF712FA144B187001281BD1D3
:10351000FFF7CAF8002802D0FF22114B1A70FFF7FC
:1035200057FF104BA8420DD3002C0BD0084A12783D
:10353000052A07D109201A7890428041511C197040
:10354000404270BD00221A700020FAE7D308002024
:103550006A090020D4080020CE0800200E090020AF
:10356000D208002012090020F8B50500FDF796FEEC
:103570002A0001000C4800F068FA002401260C27FC
:103580000A4B1B88234133420AD0E0B2FFF76AF8A6
:103590003B006343010006482A00181800F055FA62
:1035A0000134062CECD1F8BD5C090020560800203F
:1035B00014090020F8B5124D1248298800F0FCF9D2
:1035C00004002888FFF702FA002507000E4B0122AD
:1035D0001B882B4113420ED00C266E430B4B390037
:1035E000F618300000F0E8F9A04204D839003000A5
:1035F00000F0E2F904000135062DE7D12000F8BD06
:10360000D80800205C09002056080020140900207A
:10361000154B70B51D880C00ABB2834200D9051C58
:10362000FFF7D6FEAEB2031CB04200D22B1C9BB2F9
:10363000A34216D00D4A1278052A0DD1A3420BD30E
:10364000B04209D20A4A1288A2420AD309490A4A58
:1036500009881288914204D01C000749054A09884C
:103660001180200070BDC046D60800206A090020E5
:10367000D408002010090020B0080020F8B506008A
:10368000FDF70CFE00240127094B0A4D18805E80CF
:10369000094B1B8823413B4204D0E0B2FEF7E2FF16
:1036A0006E80288001340C35062CF1D1F8BDC0465F
:1036B0005C090020140900205608002070B506009F
:1036C0000D00FDF7FDFD214C002804D1864230D0CD
:1036D000238883422DD0FEF789FF002829D12800B6
:1036E000FFF742FF2800FFF7C9FFFFF763FF030062
:1036F000A84203D24019401080B203002900238061
:10370000FFF786FF124D2080287804281BD802F08E
:1037100063FC030A12141800002E0AD0FFF73CF8CD
:1037200001232B7005E0002E03D003232B70002310
:103730002380208870BD0023F3E700232380043317
:10374000EFE7002EF5D00523EBE7C046680900201F
:103750006A09002010B5FFF745F910BD70B5FFF7F5
:1037600053F9FDF79BFD04000220FEF7B3FCA042D5
:1037700003D2264B188800F08BF8254B1B88A342F8
:1037800004D2244B244A01201A6004E0FDF704FD12
:10379000012801D8022070BD204C637D227D1B02D0
:1037A00013430FD01D20FDF7D3FC631DDA7FA31D4B
:1037B000DB7F00B21B0213431BB2984202DD154BA4
:1037C000174AE0E7FDF7E8FC221DD57FE31CDB7F0D
:1037D0002D0206001D4300236D00C017AE42584164
:1037E000C0B2FDF7DFFCAE42D4DBE37FA27F1B0259
:1037F0001343CFD01B20FDF7ABFC0400FEF7B4FC55
:1038000024B2A042C6DD034B064ABCE7D60800201E
:10381000D80800205C080020EC7200008608002018
:10382000E2720000E8720000014B18787047C04651
:1038300070090020014B18887047C0466C090020B1
:1038400010B5FDF731FD011C002800D10121064C07
:1038500089B2608AFEF7B6FEA3899AB2824200D985
:10386000031C98B210BDC04662080020064A10B57D
:10387000031C904200D9044B044A98B21380FCF711
:10388000D9FFFDF76FFD10BD60EA00006E09002052
:1038900010B50400FFF7D4FF011CA04200D9211C81
:1038A0000C4A89B213888B420AD9581A8C3B8C284F
:1038B0000ADC0F201180FDF7CDFDFFF7D7FF07E0F1
:1038C000C81A8C2802DD8C3399B2F2E78B42F0D112
:1038D00010BDC0466C09002010B5084C20780028A7
:1038E0000AD1074B1880074B1880FFF7BFFF012054
:1038F000FCF7BEFF0123237010BDC04670090020F5
:103900006E0900206C09002070B5084D2B78002B43
:103910000BD000240020FFF7A9FF054B20001C80DE
:10392000044B1C80FCF7A4FF2C7070BD70090020B4
:103930006E0900206C0900200020064B10B518808D
:10394000054B1880FFF792FF0122044B1A70FFF716
:10395000DBFF10BD6E0900206C09002070090020FB
:1039600010B5418800290BD00022835EFA20DA17B7
:103970009B1853409BB280005843FCF7A3FD81B2D3
:10398000080010BD70B504AC26780D1C914200D91A
:10399000151C0C1C914200D2141C002E02D12900CF
:1039A00025000C000021621BC580058041808180BC
:1039B0004381028170BD000010B50B000822815EBA
:1039C00000290FD0C28840899B1A584302F00EFB91
:1039D00080235B02984205DA0023984200DB83B221
:1039E000180010BD004BFBE7FFFF0000F8B543884F
:1039F0000500D41A934200D39C1AA888A4B24008A8
:103A0000A04212D22888461A934200D20E1A36B229
:103A10003000FEF7B4FA07000823E85EFEF7AFFABD
:103A2000874202D1AC802E816C81F8BD70B5040054
:103A30000823C05E0D005043618902F0D7FA0023CD
:103A4000854200DB2B1AE38070BD70B50D001600B7
:103A50000400FFF7CBFF320029002000FFF7E6FF4C
:103A600070BD000010B50024064B1C755C7502F09B
:103A70005FF9054800F02CFD02F078F9034B1C704B
:103A800010BDC046860800204C670000600800207A
:103A9000F7B5134B0700134918000193002601F0F6
:103AA00018F81220FDF718FD0400051E08D0FDF7D8
:103AB000E3FB431E9841B84207D0002E07D02600F2
:103AC00001F086FD0128ECD100252800FEBD064945
:103AD0000198B74200D1054800F0FBFFEFE7C04670
:103AE000DA720000C6720000B8720000CF720000E7
:103AF000F7B50191110017000600FDF7ABFC019925
:103B000004003000FDF7A6FC019B0500D919300028
:103B10004908FDF79FFC0123002D16D00C4ADB1845
:103B2000954212D00133002C0FD0013394420CD0B7
:103B30000133AC4209D902000A3A0133AA4204DD3A
:103B40000A300133844200DD00231800FEBDC04668
:103B5000FFFF000010B5084C0F20A2896189FFF714
:103B6000C7FF002802D00A30C0B210BDA289618907
:103B70000220FFF7BDFFF8E76208002010B5084CEF
:103B80001020228AE189FFF7B3FF002802D00A3013
:103B9000C0B210BD228AE1890320FFF7A9FFF8E730
:103BA0006208002010B5FEF749F8041E0AD0FA2179
:103BB000002089000A4AFFF79BFF011E05D0094833
:103BC00001F03CF80024200010BDFFF7C3FF011EE8
:103BD0000548F5D1FFF7D2FF011E0448F3D0EFE707
:103BE00078690000B0720000A77200009B720000AC
:103BF00010B5FFF7D7FF10BDF0B589B002910021D5
:103C00001C00039200F05AFB002C00D096E05A4BA7
:103C1000188C43425841032340429843574BC018E5
:103C200000F03EFB012000F02DFC061E00DAA1E0B2
:103C3000C0B200F0C7FA02230400184200D192E09B
:103C4000029B9D5D2800FDF747FC0028EAD0FDF7A8
:103C50009BFB00224A4B1A704A4B1A7000F05CFC26
:103C6000002865D063B20193039B04209E5D01F0A0
:103C70006BFB2800FDF76CFA040002F083F83000BB
:103C8000FDF760FA05AA108054801F2D58D1092035
:103C9000FDF758FA06AD28800820FDF759FA2018DC
:103CA00068800A20FDF74EFA07AC208020206E883D
:103CB000FDF74EFA36186680334E2A000820317818
:103CC000FDF7A2FA09202A003178FDF79DFA20209D
:103CD000FDF702FC002804D0220031780A20FDF70D
:103CE00093FA019B002B20DA0125254B07AC1D70B0
:103CF000FDF74AFB02F046F80020FDF723FA20808A
:103D00002800FDF71FFA23881B1A23801320FDF7D4
:103D10001FFA1D4E2200317860800020FDF774FAF2
:103D2000220028003178FDF76FFA0120FDF7D0FE60
:103D30000122134B1A70134B1A7073E70F486FE789
:103D4000114F202D0CD10A20FDF7FCF907AD28807A
:103D50000920FDF7FDF924182A0039786C80BDE7A9
:103D600030003978BBE70423184200D15AE700F04D
:103D7000D3FB57E709B0F0BD62080020FF7F0000C9
:103D80005A080020180000207209002010B50124F4
:103D9000094B20001C80FDF757FC2000FFF778FE40
:103DA000002805D00023054A05490648FFF724FFEF
:103DB000FDF7FAFA10BDC04672090020046A00003F
:103DC0000B6A0000FC68000070B50125084B00205C
:103DD0001D80FDF739FC00230649074C0A000748FF
:103DE0002370FFF709FF2570FDF7DEFA70BDC046AE
:103DF000720900204C680000F9030020546800009C
:103E000070B5002501240A4B1D8001F0AFFF094B5E
:103E100028005D751C75FDF717FC074923000A0093
:103E20000648FFF7E9FEFDF7BFFA01F081FF70BD1C
:103E30007209002086080020E8670000EC67000097
:103E4000002010B5064B1880FDF7FEFB0549012345
:103E50000A000548FFF7D0FEFDF7A6FA10BDC046E0
:103E600072090020846700008867000013B5064BC4
:103E700001AC020019782000FDF7A6F9072160883F
:103E800001F087FD13BDC0467909002010B5FDF78C
:103E900011FA072101F07DFD034B1878FDF752F967
:103EA000062101F06DFD10BD78090020054B10B50D
:103EB0001B78022B02D1FFF7D9FC10BDFEF712FFD1
:103EC000FBE7C0467809002070B5164C164B2178E8
:103ED0001D88164A02291DD115498D4201D915495F
:103EE0001980154915888D4200D91180984202D158
:103EF0000088FFF7DBFF1220FDF7EEFA002808D15B
:103F00000E490F4800F0E5FD2378032B01D1FEF7A1
:103F100025FF70BD0B498D4200D91980FA21890017
:103F2000E0E7C046780900207409002076090020E7
:103F300060EA000060EAFFFF88130000C67200001C
:103F4000DA720000F87F0000F0B5002587B002208B
:103F500000F0EAF9434B444A00201A60434B1D70BD
:103F600000F090FA051E00DA79E00120FDF76CFB05
:103F70000020FFF78DFD00286ED03D4BEFB204AC62
:103F800019783A0020000293FDF71EF9394E3A00E5
:103F9000317805A8FDF718F93749384800F08EF94F
:103FA000374B62881A8000230193364B012000931F
:103FB000009A2388138000F065FA00283BDB30D19B
:103FC0003378022B27D1FFF787FC2F48FCF716FC2C
:103FD000009B1888FFF76AFF00F09EFA0390002804
:103FE00010D0FDF7D1F9009A254B12881B8822804A
:103FF000307804AA6380D380FDF7A4F804AB9880DE
:10400000039B01930020FFF751FF3378022B05D16A
:10401000FFF77AFCC9E7FEF78DFED9E7FEF79EFEB3
:10402000C3E70228C1D100F077FA0028BDD1144BB4
:1040300062881A80B9E7019B002B0DD0029B2200F9
:1040400018783900FDF7E0F83078390005AAFDF757
:10405000DBF80120FDF73CFDFDF7A6F977E707B097
:10406000F0BDC046900900206D3E00009809002078
:104070007909002078090020C93E0000146A000078
:104080007609002074090020786900000F2210B51D
:10409000034B1A70034B0D3A1A70FFF755FF10BD12
:1040A0007909002078090020102210B5034B1A70FE
:1040B000034B0D3A1A70FFF747FF10BD7909002036
:1040C00078090020F7B50024050026006B469F1DE7
:1040D000124B0222196818237343C918380004319F
:1040E00002F06EF83B88002B16D00D4A19B21288E8
:1040F000002905DA11B200290ADA802109024B40B1
:10410000134205D0002D06D0013D0134EDB2E4B2DA
:104110000136F6B2DAE734002000FEBD7C0900204B
:1041200084090020F7B507001824FFF7CBFF144DD2
:10413000444329680422091901A802F041F80198B2
:1041400001F0EBFA060001F0CDF8002812D10F21A2
:104150002B68891B1B195E7AC9B2002E04D0891BFB
:1041600048B201F005FB310028680019083001F061
:1041700061F804E0034B1B785BB2BB42E7D1F7BDAB
:104180007C090020E209002013B5FFF79BFF1823EC
:104190000B4A434314686846E418210004220C319A
:1041A00002F00EF8237A0099013BDBB2012B04D810
:1041B0000822684602F004F80199080016BDC046BE
:1041C0007C09002013B5FFF77DFF6B469C1D18236B
:1041D000054A434311682000C9180222043101F046
:1041E000EFFF208816BDC0467C090020F0B585B0E1
:1041F00004000F00FFF7C8FF06002000FFF762FF72
:104200001823244A4343116802ACC918082220002D
:10421000103101F0D5FF0023E55E022F08D0012701
:104220001D4BE81803282CD801F0D6FE17281305DB
:1042300001277F42F4E739003000E388A288FDF7C8
:10424000F1FE164B1B68002B01D03000984705B0DB
:10425000F0BD380063689847F3E733880625605F50
:10426000FB181A1C1BB2834200DDE288328011B2B7
:104270000422A35E8B42E4DD3380E2E701F09EF985
:104280000500ADB2E388A288390030000095FDF743
:10429000A4FED6E77C0900200480FFFF80090020EF
:1042A000044B10B51880FF20FFF70CFF024B18706D
:1042B00010BDC04684090020960900200A4B10B5A5
:1042C00018600A4B0020196000F02EF8084B094ACC
:1042D00009481A60094B0A4A1A60FF22094B1A70F2
:1042E000FFF7DEFF10BDC0467C09002080090020DA
:1042F0009009002025410000FF7F00008C0900206C
:10430000ED410000E209002007B5064BC000196826
:104310000422091801A801F053FF019801F0FDF9EA
:1043200007BDC046880900200022064B1A70064BC4
:104330001A70064B01321870054B1A70054B1A7033
:104340007047C04698090020970900209609002070
:10435000950900209409002013B50024074AE300C2
:10436000116801A8C918042201F02AFF019B002B43
:1043700001D1200016BD0134E4B2EFE78809002026
:10438000024A1378013313707047C0469809002021
:10439000034A1378002B01D0013B13707047C046CD
:1043A000980900200A490B4A0B781278934202D3ED
:1043B000013AD3B20B7008490A789A4201D91A001F
:1043C0000B7001329A4201DA013B0B707047C04614
:1043D00098090020960900209709002070B5FFF782
:1043E000E1FF124D2C7829784B1CA34203DA0022FE
:1043F0000F4B1A7070BD611A0020C9B201F051F95B
:104400000C4B20201B78A34200D11E3001F05DF937
:10441000094B1B78A34203D9084B20001B6898471F
:10442000013401F0B0F9E4B2DDE7C046970900209D
:104430009509002098090020960900209009002085
:1044400070B501F0C5F8040001F032FC0C4D0028F5
:1044500004D001237F242B70200070BD022C0BD0D0
:10446000042C03D1FFF78CFF01232B702B78002B3A
:10447000F2D0FFF7B3FFEFE7FFF78AFFF4E7C0469C
:104480009509002070B5012506000E4C2570FFF738
:10449000D7FF0D4B002800D118701A78002A07D1D9
:1044A000082805D1002001321A70084B185670BD3B
:1044B000002E00D025700128E9D1002AE7D102386A
:1044C000F5E7C046950900209409002098090020CE
:1044D00070B5050000240C4E3560FFF73DFFFFF777
:1044E00023FF0A4B0A4A00201A600A4B1C70FFF790
:1044F000C9FF041E06DBC3003068C0180430FDF796
:1045000017FDE8E770BDC04688090020900900202B
:104510000943000098090020F8B51D4F1D4E3B7857
:104520001D4D337000231D4C2B700133237001F09F
:104530004FF80100013807280FD801F04DFD1E0487
:104540000E040E0E0E1E164B38781B6898473B78EB
:10455000337002232B70013B237000F0D3FE002840
:1045600004D001232370FFF739FF02E02378834250
:10457000F9D12B7801332B70D9E7FF230122337057
:10458000084B08391A704B4259412270C8B2F8BD25
:1045900098090020E2090020E10900209509002087
:1045A0008C0900209409002010B5FDF753FB10BDC5
:1045B00010B50248FFF78CFF10BDC046746A0000BA
:1045C00037B50500FDF704FE01220300290002486B
:1045D0000092FDF702FD37BD8A08002070B51A4D24
:1045E0006B782A781B0213432AD0FDF791FD012432
:1045F0006B7D2A7D1B02844013431AD18023DB018B
:10460000E418A4B2FDF784FD002809D1EB7FAA7F4E
:104610001B021343834203D080239B00E418A4B2FF
:104620000A4B1B8C002B02D0094BE418A4B22000CB
:1046300070BDFDF76DFD82230028E0D18A23DEE7FF
:104640008024E401F3E7C0468608002062080020C9
:104650000080FFFF0F4B10B5984208D1FDF7C2FE56
:10466000FDF7CCFDFFF7BAFFFFF71AFE10BD0A4BAE
:10467000984202D1FDF794FEF2E7084B984202D12E
:10468000FDF76AFEECE7064B9842E9D1FDF776FEAE
:10469000E6E7C04686080020880800208C08002035
:1046A0008E08002010B5124912488AB0FFF706FEA6
:1046B000FFF794FFFFF7F4FD0020FFF7E3FE00286B
:1046C00014DB28220C49684601F07AFDFFF724FF2D
:1046D000002805D128226946074801F071FDE7E767
:1046E000042000F031FEFDF789FDE1E70AB010BDBE
:1046F00055460000946A00008608002010B5034B60
:104700001B68195C024801F016F810BD9C090020D6
:104710003C6D0000F8B50400FDF7F6FDFDF7F8FC70
:10472000194B1A785B781B021343184A05D0184AB4
:10473000052802D8174B8000C2580020164D2A6069
:104740000300D35C0130C0B2092BF9D1FFF7ECFDB7
:10475000124B134F134A144E1A603B7800203370EB
:10476000FFF790FE33783B7000280CDB2A68D05CA2
:10477000092805D1FFF796FF2000FDF7DDFDCDE705
:10478000FDF742FBCAE7F8BD86080020816D0000F6
:10479000666D0000246D00009C0900209009002037
:1047A00099090020FD46000098090020044B588B11
:1047B00043425841012340429843024BC01870477E
:1047C00062080020FF7F000010B5FFF7EFFFFFF742
:1047D00067FDFDF78DFB10BD10B51A491A488AB068
:1047E000FFF76CFDFFF7E2FFFFF75AFD0020FFF730
:1047F00049FE002821DBC0B2FFF7C6FC002806D125
:104800001248FDF763FB042000F09EFDEAE7242236
:104810000E4901A801F0D4FCFFF77EFE002808D164
:1048200024220A4801A901F0CBFC0848FDF77CFBD3
:10483000D8E7042000F088FDF7E7FDF739FB0AB060
:1048400010BDC046C9470000846D0000620800200A
:1048500010B5002803D1044800F05FFF10BD0138F7
:10486000C0B2FDF733FEF9E7C574000070B500244F
:1048700025001520FFF758FD0A4B0B4A00201A604F
:104880000A4B1D70FFF7FEFD00250400A842F0DB77
:1048900002D1FFF78DFEEBE70138C0B2FFF73AFF18
:1048A000E6E7C04690090020514800009809002022
:1048B00010B5012902D1FDF7D5FE10BDFEF794FD1C
:1048C000FBE7000070B504000D00052815D8013085
:1048D000C0B201F017F83A2000F0F7FE20001F30B8
:1048E000C0B2FCF7F9FD002808D029002000FFF72E
:1048F000DFFF2A00062101F05BF870BD014800F0DF
:104900000CFFFAE7606F0000F7B50400019100F0BA
:10491000CCFEFDF76BFE002825D10330FDF774FFB8
:104920006D23002800D04D3B234F3A88002A21D127
:10493000180000F0CAFE072000F01AFF01992000BD
:10494000FFF7C0FF00F01FFF00F0B5FE601C0199EB
:10495000C0B20234FFF7B6FF0199E0B2FFF7B2FF31
:1049600000F011FFF7BD154B1A786223002ADBD047
:10497000203BD9E700260125114B20201B882B4026
:104980009BB2002B10D00F4B00201B785BB2B342C0
:104990000AD03B8801302B409BB2002B04D00A4B3D
:1049A0001878022340001840013600F08EFE6D009A
:1049B000062EE1D10220BFE7D0080020B408002075
:1049C00056080020D2080020E109002010B501217E
:1049D0000020FFF799FF10BD10B501210320FFF75C
:1049E00093FF10BD10B506210020FFF78DFF10BD0D
:1049F00010B506210320FFF787FF10BD0B4B70B5E4
:104A00001D78033D6B425D41094BAD071C78FDF7F6
:104A10007FFB084B64071A780123934080229200A1
:104A200082405B191B19981870BDC04660080020B1
:104A3000020900206108002070B5441CFFF7DEFF6A
:104A40000022094DE3B20C21514349194E68064238
:104A500004D08E68064201D1013BDBB20132D2B2F2
:104A6000002BF0D1086870BD6070000010B500F038
:104A700085FB054A137801331370044B1878FFF750
:104A8000DBFF804710BDC046E1090020A1090020DE
:104A900000220221044B10B51A70044B1970044B0C
:104AA0001A7000F05BFB10BDE2090020E109002054
:104AB000A1090020704710B500F0A2FF10BD10B58D
:104AC000040000F0FEFD00F0F0FD200000F025FEE7
:104AD00010BD10B50C00FFF7F2FF00F0ECFD200058
:104AE00000F01BFE10BD000010B5040000F0DDFD5D
:104AF000200000F012FEFEF777FA072100F018FF01
:104B000000F0D9FD034B186800F007FE00F03BFEF3
:104B100010BDC0465C08002010B50248FFF7E4FF56
:104B200010BDC046676F000010B50248FFF7DCFFFC
:104B300010BDC046716F000010B50248FFF7BFFFFF
:104B400010BDC046786F000070B500240F25281BEB
:104B50000121C0B200F0A5FDFF2000F0B6FD00214C
:104B6000200000F09EFD0134FF2000F0AEFDE4B215
:104B70000A2000F00FFD102CE9D170BD70B501F0D6
:104B800097F8002801D1FFF771FF0F4D2B78042B08
:104B90000CD10E4C20780130C0B2FFF74DFF002839
:104BA00004D0FFF7D1FF2378013323702B78022B39
:104BB00008D1064C2378002B04D0FFF7C5FF2378DB
:104BC000013B237070BDC046A0090020A109002050
:104BD00010B5040000F075FD00F067FD074800F017
:104BE0009CFD200000F08FFD00F065FD044800F002
:104BF00094FDFDF737FA0828FBD110BD896F00003E
:104C0000976F000010B50248FFF759FF10BDC0466E
:104C1000A76F000010B50C1E06D00648FFF74FFF27
:104C2000200000F070FD10BD0348FFF748FFFDF7BE
:104C300019FAF8E7B86F0000CD6F000010B50C004E
:104C400001000548FFF745FF0321200000F098FE12
:104C5000FDF708FA10BDC046DE6F000010B503482E
:104C6000FFF72DFF024800F089FC10BDEB6F00003C
:104C7000B80B000010B51920FCF76AFA082100F003
:104C8000B9FE10BD10B5FEF7CFFD4324002807D1B3
:104C9000FDF7F6FF002813D0FEF7C6FD4430C4B27E
:104CA000FEF754F9002800D05724200000F00DFD35
:104CB000FEF79AF9072100F03BFE00F05FFD10BD02
:104CC000FDF794FC42240028EAD10C34E8E710B543
:104CD00007211B20FCF72EFC00F055FD10BD000045
:104CE00010B5094B1A7D5B7D1B02134306D00821CA
:104CF0001D20FCF71FFC00F046FD10BD06210348F7
:104D000000F0E0FDF7E7C0468608002009700000CB
:104D100010B500F0CAFC0C4800F0FFFC0B4B1A7DEC
:104D20005B7D1B02134309D0FCF730FA082100F029
:104D30002BFE00F028FD00F0BEFC10BD0821044849
:104D400000F0C0FDF5E7C0460D70000086080020A9
:104D50000970000010B500F0A8FCFFF78BFF0821D8
:104D60001720FCF7E7FB00F00EFD00F0A4FCFFF7B6
:104D700089FF07211420FCF7DDFB00F004FD10BDC6
:104D800010B500F092FCFDF7CFF9082100F032FEDB
:104D9000094B0821188800F0FCFD00F0F4FC00F03D
:104DA0008AFC064800F0B9FC054B0721188800F082
:104DB000F5FD00F0E8FC10BDD608002013700000DF
:104DC000D808002010B500F070FC0F4B0821D87CEB
:104DD0009A7C000210430C2200F0EAFDFEF704F971
:104DE000082100F0A5FD00F066FC622000F06DFCDB
:104DF000FEF70CF9072100F09BFDFEF711F90821E1
:104E000000F096FD10BDC0468608002010B500F0E9
:104E10004CFC0D4800F081FCFEF7F0FA082100F090
:104E2000C2FD00F0B0FC00F046FC084B1B78002BE4
:104E300007D0074800F071FCFEF7E8FA082100F0FF
:104E4000B2FD00F0A0FC10BD1C70000002090020A3
:104E50002570000010B500F028FC0B4800F05DFC48
:104E600007210620FCF766FB00F08DFC00F023FC18
:104E7000064800F052FC064B01220721D88A00F0B8
:104E800097FD00F080FC10BD2E7000003670000011
:104E90006208002010B5FFF73BFF054800F03DFC1D
:104EA00008210520FCF746FB00F06DFC10BDC04654
:104EB0003E70000010B500F0F8FBFFF7DBFEFFF7D7
:104EC0000FFF00F0F8FBFFF7DDFEFFF700FF10BD5E
:104ED00010B500F0EAFB084800F01FFC07211C2079
:104EE000FCF728FB00F04FFC00F0E5FB034800F066
:104EF00014FCFFF7ECFE10BD447000004A70000087
:104F000010B5FFF705FF034800F007FCFFF7E8FEC8
:104F100010BDC0465170000010B500F0C6FB08215E
:104F20001820FCF707FB00F029FC07211720FCF7ED
:104F300001FB00F028FC00F0BEFB08211A20FCF762
:104F4000F9FA022000F014FCFEF774F8042100F0D6
:104F500017FD034800F0E1FB00F015FC10BDC04652
:104F60005970000070B5054C4500605D641900F093
:104F7000ACFB607800F0A9FB70BDC0463871000042
:104F800070B505000020FDF789F8154A0600537832
:104F900011781B020B430A3B012B06D80120FDF7B9
:104FA00099F8290000F0FAFC70BD092311795479B1
:104FB0008B429B415B420833E81A240240B20C4307
:104FC00000F0D6FB0521300000F0E8FC2F2000F0B7
:104FD0007CFBE0B200F097FB432000F076FBE3E7B8
:104FE0008608002010B5034B0348197800F0A3FB96
:104FF00010BDC046860800204466000010B500F0D1
:1050000054FBFFF7EFFF00F0B9FB0820FFF7B8FFF4
:1050100000F0B4FB2C4B1878FFF7A4FF00F0AEFBB8
:1050200000F049FBFEF706F8022100F0A9FC274832
:1050300000F073FB00F056F900281ED00024244B2A
:105040001C57E3071CD505211220FCF773FA20201A
:1050500000F03BFBFDF75CF802281CD1204040B279
:10506000002811D005211320FCF764FA64070FD53E
:10507000FCF702F900F046FC10BD01246442E2E7AF
:10508000052000F075FBE2E7052000F071FBEDE77D
:1050900000F074FBF0E70F4B5A78197812020A43BC
:1050A0000B2A09D1D8799A7900020621104300F021
:1050B00070FC00F068FBDFE7D8789A7800020621E0
:1050C000104300F097FCF4E7610800205B700000DB
:1050D000E20900208608002070B51C4B18781C4B94
:1050E000C008197849080131FBF772FACCB200F018
:1050F000DCFA601C0121C0B200F042FC002000F08C
:10510000E4FA144EE30098590621650000F010FC03
:10511000013500F033FB022000F0D7FAAB009859BC
:10512000062100F005FC00F02EFB00F0C4FA0A4E48
:10513000A400A05B6D00082100F05CFCA85B0821C6
:1051400000F058FC00F01FFB70BDC046E1090020D4
:10515000AE080020A4090020CC09002010B52822A8
:1051600000210448FBF748F8142200210248FBF70D
:1051700043F810BDA4090020CC09002010B5074B4E
:105180001C78FDF74DFF064BA20098501920FBF745
:10519000DFFF044B6400185310BDC046AE0800206A
:1051A000A4090020CC090020044B01201B78042B0B
:1051B00003D0023B5A42534158427047A009002095
:1051C00010B5FFF7F1FF184C011E07D01748FCF788
:1051D00041FF0022164B1A700A23237000F065FA73
:1051E0002378002B1DD0013B2370104B0821188819
:1051F00000F0CFFB00F0C2FA07211720FCF79AF964
:1052000000F0C1FA00F057FA08211820FCF792F9D3
:1052100000F0B4FA07211420FCF78CF900F0B3FA7F
:1052200010BDFFF72FFDE7E7E0090020D6080020BA
:10523000A009002070B586B002AD08220C00010064
:10524000280000F0BDFF2A78032A04D16B6860B201
:10525000984706B070BD530607D53F231A406B68C8
:1052600061B2188800F0A4FBF3E7012A1CD0022ADF
:10527000EFD16968082204A800F0A2FF059E049DF2
:10528000318804228900691801A800F099FF01986B
:1052900000F0EAFF201A40B200F06AFA31782800E4
:1052A000C9B200F048FAD4E76968082204A800F0FF
:1052B00087FF059B04991B8804229B00C91801A83D
:1052C00000F07EFF01986421FBF7FCF8023C61B21C
:1052D00080B200F055FB302000F0F7F9302000F0EC
:1052E000F4F9B6E7054B00201B787F2B05D8044B5B
:1052F000187801234008013018407047E209002067
:10530000E1090020074B00201B787F2B09D8064BB2
:105310001B78581EC0B25B084008C01A431E984153
:10532000C0B27047E2090020E10900200022014BD1
:105330001A707047E309002010B500F00DF9014B19
:10534000188010BDE609002010B5084B1B895A1EB5
:1053500093415B421840064B1A78824205D0187080
:10536000FFF7EAFF322000F015F910BD62080020B7
:10537000E3090020034B10B51B78002B01D1FFF788
:10538000E3FF10BDE309002003004A0000209A4219
:1053900003DB994202DAD21AD0B27047002083426E
:1053A000FBDDD8B2F9E70000030010B54008292B57
:1053B00003D90020034B187010BD0A21FFF7E4FF4A
:1053C000FAE7C046E309002070B58508C82D03D967
:1053D0000020084B187070BD0A212800FFF7D4FF89
:1053E000040028000A212838FFF7CEFF2018C0B299
:1053F000F1E7C046E3090020FA2110B5C900FBF728
:10540000E7F888B20A21FFF7BFFF10BD074B10B5C0
:10541000984203D90020064B187010BD0A21FBF7F3
:1054200051F8142180B2FFF7AFFFF6E781050000C5
:10543000E3090020094B10B5984203D90020084B1E
:10544000187010BD0A21FBF73DF8282180B2FBF748
:10545000BFF888B21421FFF797FFF2E72F11000081
:10546000E3090020094B10B5984203D90020084BEE
:10547000187010BD0A21FBF725F8282180B2FBF730
:10548000A7F888B21421FFF77FFFF2E72903000095
:10549000E3090020134A030012780020013A10B5F6
:1054A000072A09D8100000F097FD04080C1010140A
:1054B00014181800FFF778FF10BD1800FFF79CFFC5
:1054C000FAE71800FFF7A2FFF6E71800FFF77CFFE6
:1054D000F2E71800FFF7AEFFEEE71800FFF7C2FF94
:1054E000EAE7C046E3090020084B10B51C8800F02D
:1054F00033F8001B80B2FFF7CDFF054B1A889042AE
:1055000002D01880FBF7B2F810BDC046E6090020B3
:10551000E409002072B6044B1868044B1B78002B7A
:1055200000D162B67047C046E8090020FC050020A3
:1055300010B5FDF7D7FD00F039FDFFF7D5FFFCF7FB
:105540001BFA10BD10B5FFF7E5FF400810BD10B500
:10555000FFF7F8FF80B210BD10B5FFF7DBFF80B298
:1055600010BD10B5FFF7EEFFFA218900FAF7AAFF88
:1055700010BD10B5FFF7F5FF80B210BD70B5040087
:10558000FFF7E0FF0500FFF7DDFF401B80B284421C
:10559000F9D870BD70B50400FFF7D4FF0500FFF720
:1055A000C7FFFFF7CFFF401B80B28442F7D870BD22
:1055B000014B18787047C046EF090020024A034BA0
:1055C0001278985C7047C046EC0900204B710000CF
:1055D000F8B500251D4E1E4B32789F5C0720FFF763
:1055E000D9FFFBF715F81B4904001B4A087813780C
:1055F000A04229D0002B0AD1184A0C7033701370C6
:105600009C4202D00120FFF7B5FE2000F8BD013B0F
:10561000DBB2032B02D903230135EDB21370BD4277
:10562000DCD93278042AF0D8002CEED00B490C4893
:105630000B78805C0133DBB20B709842E5D8002315
:10564000013232700B70E0E70133E1E7EC09002032
:1056500057710000EF090020EE090020ED0900203D
:105660005171000070B504000D00002803DA2D23ED
:1056700044420B7001352000FCF798FC00232D18E4
:105680002B706E1E20000A2100F096FD3031317023
:1056900020000A2100F0AAFC013E041EF2D12800DD
:1056A00070BD10B500F038FA10BD002110B508002B
:1056B00000F032FA10BD10B50121002000F02CFAE4
:1056C00010BD10B500F01FFA10BD10B50A2802D1A8
:1056D000FFF7F1FF10BD00F0E5FAFBE770B500241D
:1056E00005000E000300A04208D02300A64205DDFD
:1056F00001346A1E105D002802D1013358B270BD1A
:10570000FFF7E3FFF1E71FB501A9FFF7ABFF0B219F
:1057100001A8FFF7E3FF05B000BD70B50025040048
:10572000A84203D0605D002801D168B270BDFFF7C8
:10573000CCFF0135F6E707B589004118042201A81E
:1057400000F03EFD0198FFF7E8FF0EBD70B50600C2
:105750000D000024AC4205DB281C002D00DA0020DF
:1057600040B270BD30000134FFF7AFFF64B2F1E723
:1057700010B501002020FFF7E9FF10BD10B5012092
:10578000FFF7F6FF10BD10B51020FFF7F1FF10BDB9
:1057900070B50D00040000F067FD281A40B2FFF755
:1057A000E7FF29002000FFF799FF70BD1FB50C002F
:1057B00001A9FFF757FF210001A8FFF7E9FF1FBD6F
:1057C000F0B587B015000CAA0C0017780190002BDB
:1057D0001BD0FA20019B80002900584300F006FCF2
:1057E0000600002F00D046423000FCF7DFFB0130FE
:1057F000C0B2A04209DC013C300061B2FFF7D6FF25
:105800006D2000F04FFA07B0F0BD29000198FAF7BB
:1058100059FE03AE310080B2002F03D02D23337028
:1058200002AB591DFFF71EFF0700012D17D9621E9D
:10583000831B934213DA29000198FAF7C9FE642307
:1058400088B228189D4201D9FA239B0058432900A9
:1058500000F0CCFB3900FFF705FF2E233B70210041
:105860003000FFF795FFCEE7F0B5134BD6009F59F8
:1058700085B0040038000391150000F0F5FC039B8F
:10588000191A49B2002915DD022300209D43082D75
:1058900005D123B2834202DA6442A4B20130074B3D
:1058A0009A5B074B9B5D00902000FFF789FF380053
:1058B000FFF733FF05B0F0BD6471000060710000B8
:1058C0006271000070B50C00050000F0CDFC201ADC
:1058D00040B2FFF74DFF2800FFF71FFF70BD00002B
:1058E000033910B5040048B2FFF742FF0348002C0B
:1058F00000D10348FFF711FF10BDC046BD75000081
:10590000B975000010B53030C0B2FFF7DEFE10BD33
:1059100070B5160005000C00FCF75BFB211A49B2BC
:105920003000FFF713FF2800FFF7EDFE70BD000009
:1059300070B50C003C210500FAF7C4FD0F4B80B296
:105940009D4208D9013C202261B2FFF7E1FF6D20A2
:1059500000F0A8F970BD033C202261B2FFF7D8FF28
:105960003A2000F09FF928003C21FAF731FE30225E
:1059700088B20221FFF7CCFFECE7C0465FEA0000E7
:1059800010B5FFF713FF10BD10B50422FFF76CFF31
:1059900010BD10B50022FFF767FF10BD10B5012242
:1059A000FFF762FF10BD10B50622FFF75DFF10BDC7
:1059B00010B50D2A03D1C0B2FFF792FF10BD0C2A1B
:1059C00006D1FA239B00984207D2FFF74DFFF5E777
:1059D000052AFAD1054B9842F7D9073948B2FFF7A3
:1059E000C7FE0348FFF799FEE8E7C046E7FD000061
:1059F000B175000010B50522FFF7DAFF10BD0000F9
:105A000013B50B4B0B4C694600200193009400F03A
:105A1000AFF80094084C69460120019400F0A8F802
:105A2000064B694602200093019400F0A1F813BDD3
:105A30001111111F0E1F11111F1F1F1F0E1F1F1FDE
:105A400070B502240A4D2C70BFF34F8F0120FBF775
:105A50008BF8084B1C70BFF34F8F0120FBF784F8C5
:105A60002C70BFF34F8F6420FBF77EF870BDC046EB
:105A70007400044014000440102310B5C2071BD565
:105A8000114A1370BFF34F8F2023820716D50E4A99
:105A90001370BFF34F8F4023420711D50A4A13708A
:105AA000BFF34F8F802300070CD5074A1370BFF355
:105AB0004F8FFFF7C5FF10BD044AE2E7034AE7E74F
:105AC000024AECE7014AF1E710000440700004408C
:105AD00010B50223040000290AD0064A1370BFF350
